{
  "contractName": "Election",
  "abi": [
    {
      "inputs": [],
      "payable": false,
      "stateMutability": "nonpayable",
      "type": "constructor"
    },
    {
      "constant": true,
      "inputs": [],
      "name": "_candidate_status",
      "outputs": [
        {
          "internalType": "bool",
          "name": "",
          "type": "bool"
        }
      ],
      "payable": false,
      "stateMutability": "view",
      "type": "function"
    },
    {
      "constant": true,
      "inputs": [],
      "name": "_selected_candidate_status",
      "outputs": [
        {
          "internalType": "bool",
          "name": "",
          "type": "bool"
        }
      ],
      "payable": false,
      "stateMutability": "view",
      "type": "function"
    },
    {
      "constant": true,
      "inputs": [],
      "name": "candidate_count",
      "outputs": [
        {
          "internalType": "uint256",
          "name": "",
          "type": "uint256"
        }
      ],
      "payable": false,
      "stateMutability": "view",
      "type": "function"
    },
    {
      "constant": true,
      "inputs": [
        {
          "internalType": "uint256",
          "name": "",
          "type": "uint256"
        }
      ],
      "name": "candidate_list",
      "outputs": [
        {
          "internalType": "address",
          "name": "",
          "type": "address"
        }
      ],
      "payable": false,
      "stateMutability": "view",
      "type": "function"
    },
    {
      "constant": true,
      "inputs": [],
      "name": "chairperson",
      "outputs": [
        {
          "internalType": "address",
          "name": "",
          "type": "address"
        }
      ],
      "payable": false,
      "stateMutability": "view",
      "type": "function"
    },
    {
      "constant": true,
      "inputs": [
        {
          "internalType": "address",
          "name": "",
          "type": "address"
        }
      ],
      "name": "standing_candidates",
      "outputs": [
        {
          "internalType": "string",
          "name": "candidate_name",
          "type": "string"
        },
        {
          "internalType": "uint256",
          "name": "Vote_Count",
          "type": "uint256"
        }
      ],
      "payable": false,
      "stateMutability": "view",
      "type": "function"
    },
    {
      "constant": true,
      "inputs": [],
      "name": "voter_count",
      "outputs": [
        {
          "internalType": "uint256",
          "name": "",
          "type": "uint256"
        }
      ],
      "payable": false,
      "stateMutability": "view",
      "type": "function"
    },
    {
      "constant": true,
      "inputs": [
        {
          "internalType": "uint256",
          "name": "",
          "type": "uint256"
        }
      ],
      "name": "voter_list",
      "outputs": [
        {
          "internalType": "address",
          "name": "",
          "type": "address"
        }
      ],
      "payable": false,
      "stateMutability": "view",
      "type": "function"
    },
    {
      "constant": true,
      "inputs": [],
      "name": "voting",
      "outputs": [
        {
          "internalType": "bool",
          "name": "",
          "type": "bool"
        }
      ],
      "payable": false,
      "stateMutability": "view",
      "type": "function"
    },
    {
      "constant": true,
      "inputs": [],
      "name": "voting_count",
      "outputs": [
        {
          "internalType": "uint256",
          "name": "",
          "type": "uint256"
        }
      ],
      "payable": false,
      "stateMutability": "view",
      "type": "function"
    },
    {
      "constant": false,
      "inputs": [
        {
          "internalType": "address",
          "name": "_voter",
          "type": "address"
        },
        {
          "internalType": "string",
          "name": "_name",
          "type": "string"
        },
        {
          "internalType": "bool",
          "name": "_elegiable",
          "type": "bool"
        }
      ],
      "name": "Add_voter",
      "outputs": [],
      "payable": false,
      "stateMutability": "nonpayable",
      "type": "function"
    },
    {
      "constant": false,
      "inputs": [
        {
          "internalType": "address",
          "name": "_candidate",
          "type": "address"
        },
        {
          "internalType": "string",
          "name": "_candidate_name",
          "type": "string"
        }
      ],
      "name": "Add_candidate",
      "outputs": [],
      "payable": false,
      "stateMutability": "nonpayable",
      "type": "function"
    },
    {
      "constant": false,
      "inputs": [
        {
          "internalType": "bool",
          "name": "_status",
          "type": "bool"
        }
      ],
      "name": "start_voting",
      "outputs": [],
      "payable": true,
      "stateMutability": "payable",
      "type": "function"
    },
    {
      "constant": false,
      "inputs": [
        {
          "internalType": "address",
          "name": "_selected_candiadate",
          "type": "address"
        }
      ],
      "name": "Voting",
      "outputs": [],
      "payable": false,
      "stateMutability": "nonpayable",
      "type": "function"
    },
    {
      "constant": true,
      "inputs": [],
      "name": "Result",
      "outputs": [
        {
          "internalType": "string",
          "name": "",
          "type": "string"
        },
        {
          "internalType": "uint256",
          "name": "",
          "type": "uint256"
        }
      ],
      "payable": false,
      "stateMutability": "view",
      "type": "function"
    }
  ],
  "bytecode": "0x608060405260008060146101000a81548160ff02191690831515021790555060018055600060025560006003556000600460016101000a81548160ff02191690831515021790555034801561005357600080fd5b50336000806101000a81548173ffffffffffffffffffffffffffffffffffffffff021916908373ffffffffffffffffffffffffffffffffffffffff160217905550611c9b806100a36000396000f3fe6080604052600436106100e85760003560e01c80638c54d4fb1161008a578063beb604e011610059578063beb604e0146105ec578063d9d3ac2e14610617578063f4e5d59914610647578063fce1ccca146106de576100e8565b80638c54d4fb1461037d5780638f35fd25146103f8578063b548bc5214610427578063b935cb4c1461051b576100e8565b80633b4b2f15116100c65780633b4b2f151461019e57806343c89d02146102865780634b1c4c29146103015780636d41258e1461032c576100e8565b8063010209ed146100ed57806320c1f485146101185780632e4176cf14610147575b600080fd5b3480156100f957600080fd5b5061010261070d565b6040518082815260200191505060405180910390f35b34801561012457600080fd5b5061012d610713565b604051808215151515815260200191505060405180910390f35b34801561015357600080fd5b5061015c610726565b604051808273ffffffffffffffffffffffffffffffffffffffff1673ffffffffffffffffffffffffffffffffffffffff16815260200191505060405180910390f35b3480156101aa57600080fd5b50610284600480360360408110156101c157600080fd5b81019080803573ffffffffffffffffffffffffffffffffffffffff169060200190929190803590602001906401000000008111156101fe57600080fd5b82018360208201111561021057600080fd5b8035906020019184600183028401116401000000008311171561023257600080fd5b91908080601f016020809104026020016040519081016040528093929190818152602001838380828437600081840152601f19601f82011690508083019250505050505050919291929050505061074b565b005b34801561029257600080fd5b506102bf600480360360208110156102a957600080fd5b8101908080359060200190929190505050610b11565b604051808273ffffffffffffffffffffffffffffffffffffffff1673ffffffffffffffffffffffffffffffffffffffff16815260200191505060405180910390f35b34801561030d57600080fd5b50610316610b44565b6040518082815260200191505060405180910390f35b34801561033857600080fd5b5061037b6004803603602081101561034f57600080fd5b81019080803573ffffffffffffffffffffffffffffffffffffffff169060200190929190505050610b4a565b005b34801561038957600080fd5b506103b6600480360360208110156103a057600080fd5b8101908080359060200190929190505050610efc565b604051808273ffffffffffffffffffffffffffffffffffffffff1673ffffffffffffffffffffffffffffffffffffffff16815260200191505060405180910390f35b34801561040457600080fd5b5061040d610f2f565b604051808215151515815260200191505060405180910390f35b34801561043357600080fd5b506105196004803603606081101561044a57600080fd5b81019080803573ffffffffffffffffffffffffffffffffffffffff1690602001909291908035906020019064010000000081111561048757600080fd5b82018360208201111561049957600080fd5b803590602001918460018302840111640100000000831117156104bb57600080fd5b91908080601f016020809104026020016040519081016040528093929190818152602001838380828437600081840152601f19601f820116905080830192505050505050509192919290803515159060200190929190505050610f42565b005b34801561052757600080fd5b5061056a6004803603602081101561053e57600080fd5b81019080803573ffffffffffffffffffffffffffffffffffffffff1690602001909291905050506112de565b6040518080602001838152602001828103825284818151815260200191508051906020019080838360005b838110156105b0578082015181840152602081019050610595565b50505050905090810190601f1680156105dd5780820380516001836020036101000a031916815260200191505b50935050505060405180910390f35b3480156105f857600080fd5b5061060161139a565b6040518082815260200191505060405180910390f35b6106456004803603602081101561062d57600080fd5b810190808035151590602001909291905050506113a0565b005b34801561065357600080fd5b5061065c6115f6565b6040518080602001838152602001828103825284818151815260200191508051906020019080838360005b838110156106a2578082015181840152602081019050610687565b50505050905090810190601f1680156106cf5780820380516001836020036101000a031916815260200191505b50935050505060405180910390f35b3480156106ea57600080fd5b506106f3611aa7565b604051808215151515815260200191505060405180910390f35b60015481565b600460009054906101000a900460ff1681565b6000809054906101000a900473ffffffffffffffffffffffffffffffffffffffff1681565b6000600190506000809054906101000a900473ffffffffffffffffffffffffffffffffffffffff1673ffffffffffffffffffffffffffffffffffffffff163373ffffffffffffffffffffffffffffffffffffffff1614610813576040517f08c379a000000000000000000000000000000000000000000000000000000000815260040180806020018281038252601f8152602001807f20796f7520617265206e6f7420617574686f72697a656420506572736f6e730081525060200191505060405180910390fd5b8273ffffffffffffffffffffffffffffffffffffffff163373ffffffffffffffffffffffffffffffffffffffff1614156108b5576040517f08c379a000000000000000000000000000000000000000000000000000000000815260040180806020018281038252601a8152602001807f73656c6620616464696e67206973206e6f7420616c6c6f77656400000000000081525060200191505060405180910390fd5b60001515600060149054906101000a900460ff16151514610921576040517f08c379a000000000000000000000000000000000000000000000000000000000815260040180806020018281038252602b815260200180611c3c602b913960400191505060405180910390fd5b6000600190505b60025481116109aa578373ffffffffffffffffffffffffffffffffffffffff166005600083815260200190815260200160002060009054906101000a900473ffffffffffffffffffffffffffffffffffffffff1673ffffffffffffffffffffffffffffffffffffffff16141561099d57600091505b8080600101915050610928565b506001151581151514610a08576040517f08c379a0000000000000000000000000000000000000000000000000000000008152600401808060200182810382526024815260200180611be16024913960400191505060405180910390fd5b60016002600082825401925050819055508260056000600254815260200190815260200160002060006101000a81548173ffffffffffffffffffffffffffffffffffffffff021916908373ffffffffffffffffffffffffffffffffffffffff16021790555081600660008573ffffffffffffffffffffffffffffffffffffffff1673ffffffffffffffffffffffffffffffffffffffff1681526020019081526020016000206000019080519060200190610ac3929190611aba565b506000600660008573ffffffffffffffffffffffffffffffffffffffff1673ffffffffffffffffffffffffffffffffffffffff16815260200190815260200160002060010181905550505050565b60056020528060005260406000206000915054906101000a900473ffffffffffffffffffffffffffffffffffffffff1681565b60025481565b60011515600860003373ffffffffffffffffffffffffffffffffffffffff1673ffffffffffffffffffffffffffffffffffffffff16815260200190815260200160002060020160009054906101000a900460ff16151514610c13576040517f08c379a000000000000000000000000000000000000000000000000000000000815260040180806020018281038252601b8152602001807f796f7520617265206e6f7420616c6c6f77656420746f20766f7465000000000081525060200191505060405180910390fd5b6000600860003373ffffffffffffffffffffffffffffffffffffffff1673ffffffffffffffffffffffffffffffffffffffff1681526020019081526020016000206001015414610ccb576040517f08c379a00000000000000000000000000000000000000000000000000000000081526004018080602001828103825260148152602001807f796f752068616420616c7265616420766f74656400000000000000000000000081525060200191505060405180910390fd5b60011515600060149054906101000a900460ff16151514610d54576040517f08c379a00000000000000000000000000000000000000000000000000000000081526004018080602001828103825260198152602001807f766f74696e67206973206e6f742073746172746564207965740000000000000081525060200191505060405180910390fd5b60008090505b6002548111610e8c578173ffffffffffffffffffffffffffffffffffffffff166005600083815260200190815260200160002060009054906101000a900473ffffffffffffffffffffffffffffffffffffffff1673ffffffffffffffffffffffffffffffffffffffff161415610e7f576001600460016101000a81548160ff0219169083151502179055506001600660008473ffffffffffffffffffffffffffffffffffffffff1673ffffffffffffffffffffffffffffffffffffffff168152602001908152602001600020600101600082825401925050819055506001600860003373ffffffffffffffffffffffffffffffffffffffff1673ffffffffffffffffffffffffffffffffffffffff168152602001908152602001600020600101819055505b8080600101915050610d5a565b5060011515600460019054906101000a900460ff16151514610ef9576040517f08c379a000000000000000000000000000000000000000000000000000000000815260040180806020018281038252602f815260200180611b60602f913960400191505060405180910390fd5b50565b60076020528060005260406000206000915054906101000a900473ffffffffffffffffffffffffffffffffffffffff1681565b600460019054906101000a900460ff1681565b6000600190506000809054906101000a900473ffffffffffffffffffffffffffffffffffffffff1673ffffffffffffffffffffffffffffffffffffffff163373ffffffffffffffffffffffffffffffffffffffff161461100a576040517f08c379a000000000000000000000000000000000000000000000000000000000815260040180806020018281038252601f8152602001807f20796f7520617265206e6f7420617574686f72697a656420506572736f6e730081525060200191505060405180910390fd5b60001515600060149054906101000a900460ff16151514611076576040517f08c379a0000000000000000000000000000000000000000000000000000000008152600401808060200182810382526027815260200180611bba6027913960400191505060405180910390fd5b6000600190505b60035481116110ff578473ffffffffffffffffffffffffffffffffffffffff166007600083815260200190815260200160002060009054906101000a900473ffffffffffffffffffffffffffffffffffffffff1673ffffffffffffffffffffffffffffffffffffffff1614156110f257600091505b808060010191505061107d565b50600115158115151461117a576040517f08c379a00000000000000000000000000000000000000000000000000000000081526004018080602001828103825260208152602001807f766f74657220616c6c726561647920616464656420746f20746865206c69737481525060200191505060405180910390fd5b60016003600082825401925050819055508360076000600354815260200190815260200160002060006101000a81548173ffffffffffffffffffffffffffffffffffffffff021916908373ffffffffffffffffffffffffffffffffffffffff16021790555082600860008673ffffffffffffffffffffffffffffffffffffffff1673ffffffffffffffffffffffffffffffffffffffff1681526020019081526020016000206000019080519060200190611235929190611aba565b506000600860008673ffffffffffffffffffffffffffffffffffffffff1673ffffffffffffffffffffffffffffffffffffffff1681526020019081526020016000206001018190555081600860008673ffffffffffffffffffffffffffffffffffffffff1673ffffffffffffffffffffffffffffffffffffffff16815260200190815260200160002060020160006101000a81548160ff02191690831515021790555050505050565b6006602052806000526040600020600091509050806000018054600181600116156101000203166002900480601f01602080910402602001604051908101604052809291908181526020018280546001816001161561010002031660029004801561138a5780601f1061135f5761010080835404028352916020019161138a565b820191906000526020600020905b81548152906001019060200180831161136d57829003601f168201915b5050505050908060010154905082565b60035481565b6000809054906101000a900473ffffffffffffffffffffffffffffffffffffffff1673ffffffffffffffffffffffffffffffffffffffff163373ffffffffffffffffffffffffffffffffffffffff1614611462576040517f08c379a000000000000000000000000000000000000000000000000000000000815260040180806020018281038252601f8152602001807f20796f7520617265206e6f7420617574686f72697a656420506572736f6e730081525060200191505060405180910390fd5b801515600060149054906101000a900460ff16151514156114eb576040517f08c379a00000000000000000000000000000000000000000000000000000000081526004018080602001828103825260188152602001807f73746174757320616c6c2072656164792063686167657264000000000000000081525060200191505060405180910390fd5b6001805414611545576040517f08c379a000000000000000000000000000000000000000000000000000000000815260040180806020018281038252602b815260200180611b8f602b913960400191505060405180910390fd5b60001515600060149054906101000a900460ff16151514801561156c575060011515811515145b8015611579575060018054145b1561159a576001600060146101000a81548160ff0219169083151502179055505b60011515600060149054906101000a900460ff1615151480156115c1575060001515811515145b156115f35760008060146101000a81548160ff02191690831515021790555060006001819055506115f06115f6565b50505b50565b606060008060009054906101000a900473ffffffffffffffffffffffffffffffffffffffff1673ffffffffffffffffffffffffffffffffffffffff163373ffffffffffffffffffffffffffffffffffffffff16146116bc576040517f08c379a000000000000000000000000000000000000000000000000000000000815260040180806020018281038252601f8152602001807f20796f7520617265206e6f7420617574686f72697a656420506572736f6e730081525060200191505060405180910390fd5b60001515600060149054906101000a900460ff1615151480156116e157506000600154145b611736576040517f08c379a0000000000000000000000000000000000000000000000000000000008152600401808060200182810382526037815260200180611c056037913960400191505060405180910390fd5b600080905060008060009050600080600190505b600254811161181a57600660006005600084815260200190815260200160002060009054906101000a900473ffffffffffffffffffffffffffffffffffffffff1673ffffffffffffffffffffffffffffffffffffffff1673ffffffffffffffffffffffffffffffffffffffff1681526020019081526020016000206001015491508185101561180d578194506005600082815260200190815260200160002060009054906101000a900473ffffffffffffffffffffffffffffffffffffffff1693505b808060010191505061174a565b506000600190505b600254811161192a57600660006005600084815260200190815260200160002060009054906101000a900473ffffffffffffffffffffffffffffffffffffffff1673ffffffffffffffffffffffffffffffffffffffff1673ffffffffffffffffffffffffffffffffffffffff1681526020019081526020016000206001015491506005600082815260200190815260200160002060009054906101000a900473ffffffffffffffffffffffffffffffffffffffff1673ffffffffffffffffffffffffffffffffffffffff168473ffffffffffffffffffffffffffffffffffffffff161415801561191157508185145b1561191d576001830192505b8080600101915050611822565b506000821415611a6257600660008473ffffffffffffffffffffffffffffffffffffffff1673ffffffffffffffffffffffffffffffffffffffff168152602001908152602001600020600001600660008573ffffffffffffffffffffffffffffffffffffffff1673ffffffffffffffffffffffffffffffffffffffff16815260200190815260200160002060010154818054600181600116156101000203166002900480601f016020809104026020016040519081016040528092919081815260200182805460018160011615610100020316600290048015611a4e5780601f10611a2357610100808354040283529160200191611a4e565b820191906000526020600020905b815481529060010190602001808311611a3157829003601f168201915b505050505091509550955050505050611aa3565b816040518060400160405280601781526020017f456c6374696f6e2069732074696564206265747765656e0000000000000000008152509095509550505050505b9091565b600060149054906101000a900460ff1681565b828054600181600116156101000203166002900490600052602060002090601f016020900481019282601f10611afb57805160ff1916838001178555611b29565b82800160010185558215611b29579182015b82811115611b28578251825591602001919060010190611b0d565b5b509050611b369190611b3a565b5090565b611b5c91905b80821115611b58576000816000905550600101611b40565b5090565b9056fe73656c65637465642063616e646964617465206973206e6f74207374616e64696e6720666f7220656c656374696f6e766f74696e672070726f636573732063616e2062652073746172746564206f6e6c79206f6e652074696d65647572696e6720766f74696e67206e6f206e657720766f7465722063616e20626520616464656463616e64696461746520616c6c726561647920616464656420746f20746865206c69737465697468657220766f74696e6720697320696e2070726f63657373206f7220766f74696e6720686173206e6f7420737472656420796574647572696e6720766f74696e67206e6f206e65772063616e6469646174652063616e206265206164646564a265627a7a723158207c815f6e9509708220ea76efc2417d6e4e73b2da39330e379d91f96185781e9564736f6c63430005100032",
  "source": "pragma solidity >=0.4.21 <0.7.0;\r\n\r\ncontract Election {\r\n      address public chairperson;\r\n      bool public voting = false;\r\n      uint public voting_count = 1;\r\n      uint public candidate_count = 0;\r\n      uint public voter_count =0;\r\n      bool public _selected_candidate_status;\r\n      bool public _candidate_status = false;\r\n\r\n\r\n      // voter detial\r\n      struct Persons {\r\n          string voter_name;\r\n          uint voted;\r\n          bool elegiable;\r\n      }\r\n      // candidate detial\r\n      struct candidates{\r\n          string candidate_name;\r\n          uint Vote_Count;\r\n      }\r\n\r\n      constructor () public {\r\n          chairperson = msg.sender;\r\n\r\n      }\r\n\r\n      // making list of candidate nad voter\r\n      mapping(uint => address)public candidate_list;\r\n      mapping(address => candidates) public standing_candidates;\r\n      mapping(uint => address)public voter_list;\r\n      mapping(address => Persons) Voters;\r\n      // adding voters in the list\r\n      function Add_voter (address _voter ,string memory _name,bool _elegiable) public{\r\n          bool new_voter = true;\r\n          require( msg.sender == chairperson, ' you are not authorized Persons' );\r\n          require(voting == false ,'during voting no new voter can be added' );\r\n\r\n          for (uint j = 1;j<=voter_count;j++){\r\n             if (voter_list[j] == _voter){\r\n                 new_voter = false;\r\n             }\r\n          }\r\n          // adding voter is allowed once\r\n          require(new_voter == true,'voter allready added to the list');\r\n\r\n          voter_count += 1;\r\n          voter_list[voter_count] = _voter;\r\n\r\n          Voters[_voter].voter_name = _name;\r\n          Voters[_voter].voted = 0;\r\n          Voters[_voter].elegiable = _elegiable;\r\n      }\r\n      // add candidate\r\n      function Add_candidate (address _candidate,string memory _candidate_name) public {\r\n          bool new_candidate = true;\r\n          require( msg.sender == chairperson, ' you are not authorized Persons' );\r\n          require(msg.sender != _candidate,'self adding is not allowed');\r\n          require(voting == false ,'during voting no new candidate can be added' );\r\n\r\n          for (uint j = 1;j<=candidate_count;j++){\r\n             if (candidate_list[j] == _candidate){\r\n                 new_candidate = false;\r\n             }\r\n          }\r\n          // candidate can't be added twice\r\n          require(new_candidate == true,'candidate allready added to the list');\r\n\r\n          candidate_count += 1;\r\n          candidate_list[candidate_count] = _candidate;\r\n          standing_candidates[_candidate].candidate_name = _candidate_name;\r\n          standing_candidates[_candidate].Vote_Count = 0;\r\n\r\n      }\r\n      //only the deployer can only allowed to start and stop voting\r\n      function start_voting (bool _status) payable public{\r\n          require( msg.sender == chairperson, ' you are not authorized Persons' );\r\n          require(voting != _status,'status all ready chagerd');\r\n          require(voting_count == 1,'voting process can be started only one time');\r\n          if (voting == false && _status == true && voting_count == 1){\r\n              voting = true ;\r\n          }\r\n          // voting can be started or stoped once\r\n          if (voting == true && _status == false){\r\n              voting = false;\r\n              voting_count = 0;\r\n              Result();\r\n          }\r\n      }\r\n      // pest the address of the selected address and vote count of that candidate is increased by one\r\n      function Voting (address _selected_candiadate) public{\r\n          // only selected voter all allowed to Vote\r\n          require(Voters[msg.sender].elegiable == true,'you are not allowed to vote');\r\n          // no candidate can vote twice\r\n          require(Voters[msg.sender].voted == 0,'you had alread voted');\r\n          require(voting == true ,'voting is not started yet');\r\n\r\n          for (uint i = 0; i <= candidate_count;i++){\r\n              if(candidate_list[i] == _selected_candiadate){\r\n                  _candidate_status = true;\r\n                  standing_candidates[_selected_candiadate].Vote_Count += 1;\r\n                  Voters[msg.sender].voted = 1;\r\n              }\r\n          }\r\n          require(_candidate_status == true, 'selected candidate is not standing for election');\r\n\r\n      }\r\n      // result can be called only if the voting process is stoped and it could only be done by the chairperson\r\n      function Result() public view returns(string memory, uint){\r\n          require( msg.sender == chairperson, ' you are not authorized Persons' );\r\n          require(voting == false && voting_count == 0,\"either voting is in process or voting has not stred yet\");\r\n\r\n          uint winner_vote_count = 0;\r\n          address winner_address;\r\n          uint _tied_between = 0 ;\r\n          uint _vote_count;\r\n          // finding the winner\r\n          for (uint i = 1 ; i <= candidate_count ;i++){\r\n\r\n              _vote_count = standing_candidates[candidate_list[i]].Vote_Count;\r\n\r\n              if (winner_vote_count < _vote_count){\r\n                  winner_vote_count = _vote_count;\r\n                  winner_address = candidate_list[i];\r\n              }\r\n\r\n          }\r\n          //finding if there are more then one winner\r\n          for (uint i = 1 ; i <= candidate_count ;i++){\r\n\r\n              _vote_count = standing_candidates[candidate_list[i]].Vote_Count;\r\n\r\n              if (winner_address != candidate_list[i] && winner_vote_count == _vote_count){\r\n                  _tied_between += 1;\r\n              }\r\n\r\n\r\n          }\r\n          //displaying Result\r\n          if (_tied_between == 0){\r\n              // when only one candidate win\r\n              return(standing_candidates[winner_address].candidate_name,standing_candidates[winner_address].Vote_Count);\r\n          }\r\n          else {\r\n              //displaying the number of candidate who have same no of vote\r\n              return (\"Elction is tied between\",_tied_between);\r\n          }\r\n\r\n      }\r\n\r\n  }\r\n",
  "sourcePath": "D:\\Files\\Etherium\\Election\\contracts\\Election.sol",
  "compiler": {
    "name": "solc",
    "version": "0.5.16+commit.9c3226ce.Emscripten.clang"
  },
  "schemaVersion": "3.1.0",
  "updatedAt": "2020-04-14T17:49:18.075Z",
  "networkType": "ethereum",
  "devdoc": {
    "methods": {}
  },
  "userdoc": {
    "methods": {}
  }
}