{
  "contractName": "Election",
  "abi": [
    {
      "inputs": [],
      "payable": false,
      "stateMutability": "nonpayable",
      "type": "constructor"
    },
    {
      "constant": true,
      "inputs": [],
      "name": "_candidate_status",
      "outputs": [
        {
          "internalType": "bool",
          "name": "",
          "type": "bool"
        }
      ],
      "payable": false,
      "stateMutability": "view",
      "type": "function"
    },
    {
      "constant": true,
      "inputs": [],
      "name": "_selected_candidate_status",
      "outputs": [
        {
          "internalType": "bool",
          "name": "",
          "type": "bool"
        }
      ],
      "payable": false,
      "stateMutability": "view",
      "type": "function"
    },
    {
      "constant": true,
      "inputs": [],
      "name": "candidate_count",
      "outputs": [
        {
          "internalType": "uint256",
          "name": "",
          "type": "uint256"
        }
      ],
      "payable": false,
      "stateMutability": "view",
      "type": "function"
    },
    {
      "constant": true,
      "inputs": [
        {
          "internalType": "uint256",
          "name": "",
          "type": "uint256"
        }
      ],
      "name": "candidate_list",
      "outputs": [
        {
          "internalType": "address",
          "name": "",
          "type": "address"
        }
      ],
      "payable": false,
      "stateMutability": "view",
      "type": "function"
    },
    {
      "constant": true,
      "inputs": [],
      "name": "chairperson",
      "outputs": [
        {
          "internalType": "address",
          "name": "",
          "type": "address"
        }
      ],
      "payable": false,
      "stateMutability": "view",
      "type": "function"
    },
    {
      "constant": true,
      "inputs": [],
      "name": "voter_count",
      "outputs": [
        {
          "internalType": "uint256",
          "name": "",
          "type": "uint256"
        }
      ],
      "payable": false,
      "stateMutability": "view",
      "type": "function"
    },
    {
      "constant": true,
      "inputs": [
        {
          "internalType": "uint256",
          "name": "",
          "type": "uint256"
        }
      ],
      "name": "voter_list",
      "outputs": [
        {
          "internalType": "address",
          "name": "",
          "type": "address"
        }
      ],
      "payable": false,
      "stateMutability": "view",
      "type": "function"
    },
    {
      "constant": true,
      "inputs": [],
      "name": "voting",
      "outputs": [
        {
          "internalType": "bool",
          "name": "",
          "type": "bool"
        }
      ],
      "payable": false,
      "stateMutability": "view",
      "type": "function"
    },
    {
      "constant": true,
      "inputs": [],
      "name": "voting_count",
      "outputs": [
        {
          "internalType": "uint256",
          "name": "",
          "type": "uint256"
        }
      ],
      "payable": false,
      "stateMutability": "view",
      "type": "function"
    },
    {
      "constant": false,
      "inputs": [
        {
          "internalType": "address",
          "name": "_voter",
          "type": "address"
        },
        {
          "internalType": "string",
          "name": "_name",
          "type": "string"
        },
        {
          "internalType": "bool",
          "name": "_elegiable",
          "type": "bool"
        }
      ],
      "name": "Add_voter",
      "outputs": [],
      "payable": false,
      "stateMutability": "nonpayable",
      "type": "function"
    },
    {
      "constant": false,
      "inputs": [
        {
          "internalType": "address",
          "name": "_candidate",
          "type": "address"
        },
        {
          "internalType": "string",
          "name": "_candidate_name",
          "type": "string"
        }
      ],
      "name": "Add_candidate",
      "outputs": [],
      "payable": false,
      "stateMutability": "nonpayable",
      "type": "function"
    },
    {
      "constant": false,
      "inputs": [
        {
          "internalType": "bool",
          "name": "_status",
          "type": "bool"
        }
      ],
      "name": "start_voting",
      "outputs": [],
      "payable": true,
      "stateMutability": "payable",
      "type": "function"
    },
    {
      "constant": false,
      "inputs": [
        {
          "internalType": "address",
          "name": "_selected_candiadate",
          "type": "address"
        }
      ],
      "name": "Voting",
      "outputs": [],
      "payable": false,
      "stateMutability": "nonpayable",
      "type": "function"
    },
    {
      "constant": true,
      "inputs": [],
      "name": "Result",
      "outputs": [
        {
          "internalType": "string",
          "name": "",
          "type": "string"
        },
        {
          "internalType": "uint256",
          "name": "",
          "type": "uint256"
        }
      ],
      "payable": false,
      "stateMutability": "view",
      "type": "function"
    }
  ],
  "bytecode": "0x608060405260008060146101000a81548160ff02191690831515021790555060018055600060025560006003556000600460016101000a81548160ff02191690831515021790555034801561005357600080fd5b50336000806101000a81548173ffffffffffffffffffffffffffffffffffffffff021916908373ffffffffffffffffffffffffffffffffffffffff160217905550611af9806100a36000396000f3fe6080604052600436106100dd5760003560e01c80638c54d4fb1161007f578063beb604e011610059578063beb604e014610510578063d9d3ac2e1461053b578063f4e5d5991461056b578063fce1ccca14610602576100dd565b80638c54d4fb146103725780638f35fd25146103ed578063b548bc521461041c576100dd565b80633b4b2f15116100bb5780633b4b2f151461019357806343c89d021461027b5780634b1c4c29146102f65780636d41258e14610321576100dd565b8063010209ed146100e257806320c1f4851461010d5780632e4176cf1461013c575b600080fd5b3480156100ee57600080fd5b506100f7610631565b6040518082815260200191505060405180910390f35b34801561011957600080fd5b50610122610637565b604051808215151515815260200191505060405180910390f35b34801561014857600080fd5b5061015161064a565b604051808273ffffffffffffffffffffffffffffffffffffffff1673ffffffffffffffffffffffffffffffffffffffff16815260200191505060405180910390f35b34801561019f57600080fd5b50610279600480360360408110156101b657600080fd5b81019080803573ffffffffffffffffffffffffffffffffffffffff169060200190929190803590602001906401000000008111156101f357600080fd5b82018360208201111561020557600080fd5b8035906020019184600183028401116401000000008311171561022757600080fd5b91908080601f016020809104026020016040519081016040528093929190818152602001838380828437600081840152601f19601f82011690508083019250505050505050919291929050505061066f565b005b34801561028757600080fd5b506102b46004803603602081101561029e57600080fd5b8101908080359060200190929190505050610a35565b604051808273ffffffffffffffffffffffffffffffffffffffff1673ffffffffffffffffffffffffffffffffffffffff16815260200191505060405180910390f35b34801561030257600080fd5b5061030b610a68565b6040518082815260200191505060405180910390f35b34801561032d57600080fd5b506103706004803603602081101561034457600080fd5b81019080803573ffffffffffffffffffffffffffffffffffffffff169060200190929190505050610a6e565b005b34801561037e57600080fd5b506103ab6004803603602081101561039557600080fd5b8101908080359060200190929190505050610e20565b604051808273ffffffffffffffffffffffffffffffffffffffff1673ffffffffffffffffffffffffffffffffffffffff16815260200191505060405180910390f35b3480156103f957600080fd5b50610402610e53565b604051808215151515815260200191505060405180910390f35b34801561042857600080fd5b5061050e6004803603606081101561043f57600080fd5b81019080803573ffffffffffffffffffffffffffffffffffffffff1690602001909291908035906020019064010000000081111561047c57600080fd5b82018360208201111561048e57600080fd5b803590602001918460018302840111640100000000831117156104b057600080fd5b91908080601f016020809104026020016040519081016040528093929190818152602001838380828437600081840152601f19601f820116905080830192505050505050509192919290803515159060200190929190505050610e66565b005b34801561051c57600080fd5b50610525611202565b6040518082815260200191505060405180910390f35b6105696004803603602081101561055157600080fd5b81019080803515159060200190929190505050611208565b005b34801561057757600080fd5b50610580611454565b6040518080602001838152602001828103825284818151815260200191508051906020019080838360005b838110156105c65780820151818401526020810190506105ab565b50505050905090810190601f1680156105f35780820380516001836020036101000a031916815260200191505b50935050505060405180910390f35b34801561060e57600080fd5b50610617611905565b604051808215151515815260200191505060405180910390f35b60015481565b600460009054906101000a900460ff1681565b6000809054906101000a900473ffffffffffffffffffffffffffffffffffffffff1681565b6000600190506000809054906101000a900473ffffffffffffffffffffffffffffffffffffffff1673ffffffffffffffffffffffffffffffffffffffff163373ffffffffffffffffffffffffffffffffffffffff1614610737576040517f08c379a000000000000000000000000000000000000000000000000000000000815260040180806020018281038252601f8152602001807f20796f7520617265206e6f7420617574686f72697a656420506572736f6e730081525060200191505060405180910390fd5b8273ffffffffffffffffffffffffffffffffffffffff163373ffffffffffffffffffffffffffffffffffffffff1614156107d9576040517f08c379a000000000000000000000000000000000000000000000000000000000815260040180806020018281038252601a8152602001807f73656c6620616464696e67206973206e6f7420616c6c6f77656400000000000081525060200191505060405180910390fd5b60001515600060149054906101000a900460ff16151514610845576040517f08c379a000000000000000000000000000000000000000000000000000000000815260040180806020018281038252602b815260200180611a9a602b913960400191505060405180910390fd5b6000600190505b60025481116108ce578373ffffffffffffffffffffffffffffffffffffffff166005600083815260200190815260200160002060009054906101000a900473ffffffffffffffffffffffffffffffffffffffff1673ffffffffffffffffffffffffffffffffffffffff1614156108c157600091505b808060010191505061084c565b50600115158115151461092c576040517f08c379a0000000000000000000000000000000000000000000000000000000008152600401808060200182810382526024815260200180611a3f6024913960400191505060405180910390fd5b60016002600082825401925050819055508260056000600254815260200190815260200160002060006101000a81548173ffffffffffffffffffffffffffffffffffffffff021916908373ffffffffffffffffffffffffffffffffffffffff16021790555081600660008573ffffffffffffffffffffffffffffffffffffffff1673ffffffffffffffffffffffffffffffffffffffff16815260200190815260200160002060000190805190602001906109e7929190611918565b506000600660008573ffffffffffffffffffffffffffffffffffffffff1673ffffffffffffffffffffffffffffffffffffffff16815260200190815260200160002060010181905550505050565b60056020528060005260406000206000915054906101000a900473ffffffffffffffffffffffffffffffffffffffff1681565b60025481565b60011515600860003373ffffffffffffffffffffffffffffffffffffffff1673ffffffffffffffffffffffffffffffffffffffff16815260200190815260200160002060020160009054906101000a900460ff16151514610b37576040517f08c379a000000000000000000000000000000000000000000000000000000000815260040180806020018281038252601b8152602001807f796f7520617265206e6f7420616c6c6f77656420746f20766f7465000000000081525060200191505060405180910390fd5b6000600860003373ffffffffffffffffffffffffffffffffffffffff1673ffffffffffffffffffffffffffffffffffffffff1681526020019081526020016000206001015414610bef576040517f08c379a00000000000000000000000000000000000000000000000000000000081526004018080602001828103825260148152602001807f796f752068616420616c7265616420766f74656400000000000000000000000081525060200191505060405180910390fd5b60011515600060149054906101000a900460ff16151514610c78576040517f08c379a00000000000000000000000000000000000000000000000000000000081526004018080602001828103825260198152602001807f766f74696e67206973206e6f742073746172746564207965740000000000000081525060200191505060405180910390fd5b60008090505b6002548111610db0578173ffffffffffffffffffffffffffffffffffffffff166005600083815260200190815260200160002060009054906101000a900473ffffffffffffffffffffffffffffffffffffffff1673ffffffffffffffffffffffffffffffffffffffff161415610da3576001600460016101000a81548160ff0219169083151502179055506001600660008473ffffffffffffffffffffffffffffffffffffffff1673ffffffffffffffffffffffffffffffffffffffff168152602001908152602001600020600101600082825401925050819055506001600860003373ffffffffffffffffffffffffffffffffffffffff1673ffffffffffffffffffffffffffffffffffffffff168152602001908152602001600020600101819055505b8080600101915050610c7e565b5060011515600460019054906101000a900460ff16151514610e1d576040517f08c379a000000000000000000000000000000000000000000000000000000000815260040180806020018281038252602f8152602001806119be602f913960400191505060405180910390fd5b50565b60076020528060005260406000206000915054906101000a900473ffffffffffffffffffffffffffffffffffffffff1681565b600460019054906101000a900460ff1681565b6000600190506000809054906101000a900473ffffffffffffffffffffffffffffffffffffffff1673ffffffffffffffffffffffffffffffffffffffff163373ffffffffffffffffffffffffffffffffffffffff1614610f2e576040517f08c379a000000000000000000000000000000000000000000000000000000000815260040180806020018281038252601f8152602001807f20796f7520617265206e6f7420617574686f72697a656420506572736f6e730081525060200191505060405180910390fd5b60001515600060149054906101000a900460ff16151514610f9a576040517f08c379a0000000000000000000000000000000000000000000000000000000008152600401808060200182810382526027815260200180611a186027913960400191505060405180910390fd5b6000600190505b6003548111611023578473ffffffffffffffffffffffffffffffffffffffff166007600083815260200190815260200160002060009054906101000a900473ffffffffffffffffffffffffffffffffffffffff1673ffffffffffffffffffffffffffffffffffffffff16141561101657600091505b8080600101915050610fa1565b50600115158115151461109e576040517f08c379a00000000000000000000000000000000000000000000000000000000081526004018080602001828103825260208152602001807f766f74657220616c6c726561647920616464656420746f20746865206c69737481525060200191505060405180910390fd5b60016003600082825401925050819055508360076000600354815260200190815260200160002060006101000a81548173ffffffffffffffffffffffffffffffffffffffff021916908373ffffffffffffffffffffffffffffffffffffffff16021790555082600860008673ffffffffffffffffffffffffffffffffffffffff1673ffffffffffffffffffffffffffffffffffffffff1681526020019081526020016000206000019080519060200190611159929190611918565b506000600860008673ffffffffffffffffffffffffffffffffffffffff1673ffffffffffffffffffffffffffffffffffffffff1681526020019081526020016000206001018190555081600860008673ffffffffffffffffffffffffffffffffffffffff1673ffffffffffffffffffffffffffffffffffffffff16815260200190815260200160002060020160006101000a81548160ff02191690831515021790555050505050565b60035481565b6000809054906101000a900473ffffffffffffffffffffffffffffffffffffffff1673ffffffffffffffffffffffffffffffffffffffff163373ffffffffffffffffffffffffffffffffffffffff16146112ca576040517f08c379a000000000000000000000000000000000000000000000000000000000815260040180806020018281038252601f8152602001807f20796f7520617265206e6f7420617574686f72697a656420506572736f6e730081525060200191505060405180910390fd5b801515600060149054906101000a900460ff1615151415611353576040517f08c379a00000000000000000000000000000000000000000000000000000000081526004018080602001828103825260188152602001807f73746174757320616c6c2072656164792063686167657264000000000000000081525060200191505060405180910390fd5b60018054146113ad576040517f08c379a000000000000000000000000000000000000000000000000000000000815260040180806020018281038252602b8152602001806119ed602b913960400191505060405180910390fd5b60001515600060149054906101000a900460ff1615151480156113d4575060011515811515145b80156113e1575060018054145b15611402576001600060146101000a81548160ff0219169083151502179055505b60011515600060149054906101000a900460ff161515148015611429575060001515811515145b156114515760008060146101000a81548160ff02191690831515021790555060006001819055505b50565b606060008060009054906101000a900473ffffffffffffffffffffffffffffffffffffffff1673ffffffffffffffffffffffffffffffffffffffff163373ffffffffffffffffffffffffffffffffffffffff161461151a576040517f08c379a000000000000000000000000000000000000000000000000000000000815260040180806020018281038252601f8152602001807f20796f7520617265206e6f7420617574686f72697a656420506572736f6e730081525060200191505060405180910390fd5b60001515600060149054906101000a900460ff16151514801561153f57506000600154145b611594576040517f08c379a0000000000000000000000000000000000000000000000000000000008152600401808060200182810382526037815260200180611a636037913960400191505060405180910390fd5b600080905060008060009050600080600190505b600254811161167857600660006005600084815260200190815260200160002060009054906101000a900473ffffffffffffffffffffffffffffffffffffffff1673ffffffffffffffffffffffffffffffffffffffff1673ffffffffffffffffffffffffffffffffffffffff1681526020019081526020016000206001015491508185101561166b578194506005600082815260200190815260200160002060009054906101000a900473ffffffffffffffffffffffffffffffffffffffff1693505b80806001019150506115a8565b506000600190505b600254811161178857600660006005600084815260200190815260200160002060009054906101000a900473ffffffffffffffffffffffffffffffffffffffff1673ffffffffffffffffffffffffffffffffffffffff1673ffffffffffffffffffffffffffffffffffffffff1681526020019081526020016000206001015491506005600082815260200190815260200160002060009054906101000a900473ffffffffffffffffffffffffffffffffffffffff1673ffffffffffffffffffffffffffffffffffffffff168473ffffffffffffffffffffffffffffffffffffffff161415801561176f57508185145b1561177b576001830192505b8080600101915050611680565b5060008214156118c057600660008473ffffffffffffffffffffffffffffffffffffffff1673ffffffffffffffffffffffffffffffffffffffff168152602001908152602001600020600001600660008573ffffffffffffffffffffffffffffffffffffffff1673ffffffffffffffffffffffffffffffffffffffff16815260200190815260200160002060010154818054600181600116156101000203166002900480601f0160208091040260200160405190810160405280929190818152602001828054600181600116156101000203166002900480156118ac5780601f10611881576101008083540402835291602001916118ac565b820191906000526020600020905b81548152906001019060200180831161188f57829003601f168201915b505050505091509550955050505050611901565b816040518060400160405280601781526020017f456c6374696f6e2069732074696564206265747765656e0000000000000000008152509095509550505050505b9091565b600060149054906101000a900460ff1681565b828054600181600116156101000203166002900490600052602060002090601f016020900481019282601f1061195957805160ff1916838001178555611987565b82800160010185558215611987579182015b8281111561198657825182559160200191906001019061196b565b5b5090506119949190611998565b5090565b6119ba91905b808211156119b657600081600090555060010161199e565b5090565b9056fe73656c65637465642063616e646964617465206973206e6f74207374616e64696e6720666f7220656c656374696f6e766f74696e672070726f636573732063616e2062652073746172746564206f6e6c79206f6e652074696d65647572696e6720766f74696e67206e6f206e657720766f7465722063616e20626520616464656463616e64696461746520616c6c726561647920616464656420746f20746865206c69737465697468657220766f74696e6720697320696e2070726f63657373206f7220766f74696e6720686173206e6f7420737472656420796574647572696e6720766f74696e67206e6f206e65772063616e6469646174652063616e206265206164646564a265627a7a72315820acaf10acbaeaaa315179fa3d218a8d8803271bd08786f99c152bb9d3d8936f5c64736f6c63430005100032",
  "source": "pragma solidity >=0.4.21 <0.7.0;\r\n\r\ncontract Election {\r\n      address public chairperson;\r\n      bool public voting = false;\r\n      uint public voting_count = 1;\r\n      uint public candidate_count = 0;\r\n      uint public voter_count =0;\r\n      bool public _selected_candidate_status;\r\n      bool public _candidate_status = false;\r\n\r\n\r\n      // voter detial\r\n      struct Persons {\r\n          string voter_name;\r\n          uint voted;\r\n          bool elegiable;\r\n      }\r\n      // candidate detial\r\n      struct candidates{\r\n          string candidate_name;\r\n          uint Vote_Count;\r\n      }\r\n\r\n      constructor () public {\r\n          chairperson = msg.sender;\r\n\r\n      }\r\n\r\n      // making list of candidate nad voter\r\n      mapping(uint => address)public candidate_list;\r\n      mapping(address => candidates) standing_candidates;\r\n      mapping(uint => address)public voter_list;\r\n      mapping(address => Persons) Voters;\r\n      // adding voters in the list\r\n      function Add_voter (address _voter ,string memory _name,bool _elegiable) public{\r\n          bool new_voter = true;\r\n          require( msg.sender == chairperson, ' you are not authorized Persons' );\r\n          require(voting == false ,'during voting no new voter can be added' );\r\n\r\n          for (uint j = 1;j<=voter_count;j++){\r\n             if (voter_list[j] == _voter){\r\n                 new_voter = false;\r\n             }\r\n          }\r\n          // adding voter is allowed once\r\n          require(new_voter == true,'voter allready added to the list');\r\n\r\n          voter_count += 1;\r\n          voter_list[voter_count] = _voter;\r\n\r\n          Voters[_voter].voter_name = _name;\r\n          Voters[_voter].voted = 0;\r\n          Voters[_voter].elegiable = _elegiable;\r\n      }\r\n      // add candidate\r\n      function Add_candidate (address _candidate,string memory _candidate_name) public {\r\n          bool new_candidate = true;\r\n          require( msg.sender == chairperson, ' you are not authorized Persons' );\r\n          require(msg.sender != _candidate,'self adding is not allowed');\r\n          require(voting == false ,'during voting no new candidate can be added' );\r\n\r\n          for (uint j = 1;j<=candidate_count;j++){\r\n             if (candidate_list[j] == _candidate){\r\n                 new_candidate = false;\r\n             }\r\n          }\r\n          // candidate can't be added twice\r\n          require(new_candidate == true,'candidate allready added to the list');\r\n\r\n          candidate_count += 1;\r\n          candidate_list[candidate_count] = _candidate;\r\n          standing_candidates[_candidate].candidate_name = _candidate_name;\r\n          standing_candidates[_candidate].Vote_Count = 0;\r\n\r\n      }\r\n      //only the deployer can only allowed to start and stop voting\r\n      function start_voting (bool _status) payable public{\r\n          require( msg.sender == chairperson, ' you are not authorized Persons' );\r\n          require(voting != _status,'status all ready chagerd');\r\n          require(voting_count == 1,'voting process can be started only one time');\r\n          if (voting == false && _status == true && voting_count == 1){\r\n              voting = true ;\r\n          }\r\n          // voting can be started or stoped once\r\n          if (voting == true && _status == false){\r\n              voting = false;\r\n              voting_count = 0;\r\n          }\r\n      }\r\n      // pest the address of the selected address and vote count of that candidate is increased by one\r\n      function Voting (address _selected_candiadate) public{\r\n          // only selected voter all allowed to Vote\r\n          require(Voters[msg.sender].elegiable == true,'you are not allowed to vote');\r\n          // no candidate can vote twice\r\n          require(Voters[msg.sender].voted == 0,'you had alread voted');\r\n          require(voting == true ,'voting is not started yet');\r\n\r\n          for (uint i = 0; i <= candidate_count;i++){\r\n              if(candidate_list[i] == _selected_candiadate){\r\n                  _candidate_status = true;\r\n                  standing_candidates[_selected_candiadate].Vote_Count += 1;\r\n                  Voters[msg.sender].voted = 1;\r\n              }\r\n          }\r\n          require(_candidate_status == true, 'selected candidate is not standing for election');\r\n\r\n      }\r\n      // result can be called only if the voting process is stoped and it could only be done by the chairperson\r\n      function Result() public view returns(string memory, uint){\r\n          require( msg.sender == chairperson, ' you are not authorized Persons' );\r\n          require(voting == false && voting_count == 0,\"either voting is in process or voting has not stred yet\");\r\n\r\n          uint winner_vote_count = 0;\r\n          address winner_address;\r\n          uint _tied_between = 0 ;\r\n          uint _vote_count;\r\n          // finding the winner\r\n          for (uint i = 1 ; i <= candidate_count ;i++){\r\n\r\n              _vote_count = standing_candidates[candidate_list[i]].Vote_Count;\r\n\r\n              if (winner_vote_count < _vote_count){\r\n                  winner_vote_count = _vote_count;\r\n                  winner_address = candidate_list[i];\r\n              }\r\n\r\n          }\r\n          //finding if there are more then one winner\r\n          for (uint i = 1 ; i <= candidate_count ;i++){\r\n\r\n              _vote_count = standing_candidates[candidate_list[i]].Vote_Count;\r\n\r\n              if (winner_address != candidate_list[i] && winner_vote_count == _vote_count){\r\n                  _tied_between += 1;\r\n              }\r\n\r\n\r\n          }\r\n          //displaying Result\r\n          if (_tied_between == 0){\r\n              // when only one candidate win\r\n              return(standing_candidates[winner_address].candidate_name,standing_candidates[winner_address].Vote_Count);\r\n          }\r\n          else {\r\n              //displaying the number of candidate who have same no of vote\r\n              return (\"Elction is tied between\",_tied_between);\r\n          }\r\n\r\n      }\r\n\r\n  }\r\n",
  "sourcePath": "D:\\Files\\Etherium\\Election\\contracts\\Election.sol",
  "compiler": {
    "name": "solc",
    "version": "0.5.16+commit.9c3226ce.Emscripten.clang"
  },
  "schemaVersion": "3.1.0",
  "updatedAt": "2020-04-14T10:26:54.308Z",
  "networkType": "ethereum",
  "devdoc": {
    "methods": {}
  },
  "userdoc": {
    "methods": {}
  }
}